:100000000C94DC020C9404030C9404030C9404037D
:100010000C9404030C9404030C9404030C94040344
:100020000C9404030C9404030C9404030C94F30345
:100030000C9404030C94BF100C9404030C9404035C
:100040000C9401120C9404030C9462140C94A414E8
:100050000C9404030C9404030C9404030C94040304
:100060000C9404030C94040300000000003E5B4F5A
:100070005B3E3E6B4F6B3E1C3E7C3E1C183C7E3C08
:10008000181C577D571C1C5E7F5E1C00183C180016
:10009000FFE7C3E7FF0018241800FFE7DBE7FF30A6
:1000A000483A060E2629792926407F050507407F14
:1000B00005253F5A3CE73C5A7F3E1C1C08081C1C87
:1000C0003E7F14227F22145F5F005F5F06097F017D
:1000D0007F006689956A606060606094A2FFA29468
:1000E00008047E040810207E201008082A1C080836
:1000F0001C2A08081E101010100C1E0C1E0C303884
:100100003E3830060E3E0E06000000000000005F84
:1001100000000007000700147F147F14242A7F2AA0
:100120001223130864623649562050000807030062
:10013000001C2241000041221C002A1C7F1C2A08AE
:10014000083E080800807030000808080808000011
:1001500060600020100804023E5149453E00427F85
:10016000400072494949462141494D331814127FD4
:100170001027454545393C4A494931412111090774
:100180003649494936464949291E000014000000F5
:1001900040340000000814224114141414140041C7
:1001A00022140802015909063E415D594E7C121184
:1001B000127C7F494949363E414141227F414141BC
:1001C0003E7F494949417F090909013E4141517337
:1001D0007F0808087F00417F41002040413F017FA8
:1001E000081422417F404040407F021C027F7F0470
:1001F00008107F3E4141413E7F090909063E4151B9
:10020000215E7F09192946264949493203017F01A8
:10021000033F4040403F1F2040201F3F4038403FA9
:10022000631408146303047804036159494D4300BF
:100230007F4141410204081020004141417F0402F6
:10024000010204404040404000030708002054548D
:1002500078407F284444383844444428384444286B
:100260007F385454541800087E090218A4A49C78BE
:100270007F0804047800447D40002040403D007F1A
:100280001028440000417F40007C047804787C08FA
:100290000404783844444438FC18242418182424CE
:1002A00018FC7C08040408485454542404043F44B3
:1002B000243C4040207C1C2040201C3C4030403CE2
:1002C00044281028444C9090907C4464544C440042
:1002D00008364100000077000000413608000201A6
:1002E0000204023C2623263C1EA1A161123A404092
:1002F000207A385454555921555579412154547810
:1003000041215554784020545579400C1E527212A8
:100310003955555559395454545939555454580030
:1003200000457C410002457D420001457C40F029AA
:100330002429F0F0282528F07C54554500205454F9
:100340007C547C0A097F493249494932324848483D
:1003500032324A4848303A4141217A3A4240207884
:10036000009DA0A07D39444444393D4040403D3C7F
:1003700024FF2424487E4943662B2FFC2F2BFF09A2
:1003800029F620C0887E0903205454794100004496
:100390007D413048484A32384040227A007A0A0A81
:1003A000727D0D19317D2629292F282629292926F4
:1003B00030484D4020380808080808080808382F39
:1003C00010C8ACBA2F102834FA00007B00000814C3
:1003D0002A142222142A1408AA005500AAAA55AAEF
:1003E00055AA000000FF00101010FF00141414FFA5
:1003F000001010FF00FF1010F010F0141414FC0097
:100400001414F700FF0000FF00FF1414F404FC14A0
:100410001417101F10101F101F1414141F00101099
:1004200010F0000000001F101010101F101010100E
:10043000F010000000FF101010101010101010FF2E
:1004400010000000FF140000FF00FF00001F101745
:100450000000FC04F414141710171414F404F4002E
:1004600000FF00F714141414141414F700F71414F4
:1004700014171410101F101F141414F4141010F07B
:1004800010F000001F101F0000001F14000000FCEF
:10049000140000F010F01010FF10FF141414FF14DB
:1004A0001010101F00000000F010FFFFFFFFFFF012
:1004B000F0F0F0F0FFFFFF0000000000FFFF0F0F63
:1004C0000F0F0F38444438447C2A2A3E147E02021F
:1004D0000606027E027E0263554941633844443C6D
:1004E00004407E201E2006027E020299A5E7A599FF
:1004F0001C2A492A1C4C7201724C304A4D4D303036
:1005000048784830BC625A463D3E494949007E0120
:1005100001017E2A2A2A2A2A44445F444440514A3F
:10052000444040444A51400000FF0103E080FF0086
:100530000008086B6B083612362436060F090F06C2
:10054000000018180000001010003040FF010100EA
:100550001F01011E00191D1712003C3C3C3C00000D
:100560000000000000000700020100000304060074
:10057000000000000000000102040810204080017B
:1005800002040810200102040810200404040404DA
:100590000404040202020202020303030303030031
:1005A000000000250028002B000000000024002788
:1005B000002A000007095F1511241FBECFEFD8E005
:1005C000DEBFCDBF11E0A0E0B1E0E8E2FCE202C096
:1005D00005900D92AC3AB107D9F714E0ACEAB1E05E
:1005E00001C01D92A634B107E1F715E0C8EBD5E0D4
:1005F00004C02297FE010E940E16C43BD107C9F722
:100600000E94B6150C9412160C940000F8941092E7
:100610008000E1E8F0E0108288E09DE3909389009B
:10062000809388008081886080838081856080835A
:10063000EFE6F0E080818260808378940895CF9225
:10064000DF92EF92FF920F931F930E944B126B0168
:100650007C0160E078EF8CEA91E00E94400968EE4E
:1006600073E080E090E00E94751260EE77E08CEA23
:1006700091E00E94400968EE73E080E090E00E9403
:1006800075126FE170E08CEA91E00E94400968EE1B
:1006900073E080E090E00E9475120E944B128B0183
:1006A0009C010C191D092E093F09B801C9011F91B0
:1006B0000F91FF90EF90DF90CF90089540E251EAC4
:1006C00067E070E08CE192E00E94DE146AE071E085
:1006D0008CE192E00E9433138CEA91E00E94DF09E2
:1006E00061E0809100010E94921168EC70E08091BD
:1006F00000010E9407110E9406036CED75E080E086
:1007000090E00E94751283E00E94E610833C9140C5
:100710003CF083E00E94E610863292400CF460C008
:100720001092E5011092E40160E070E08CEA91E043
:100730000E94400980EE9FEF9093E7018093E601CD
:100740004091E4015091E50160EE7FEF8CEA91E089
:100750000E94B910609102018CEA91E00E94B310EE
:1007600040E050E060E070E08CEA91E00E94AD1063
:10077000609101018CEA91E00E94860D42E350E015
:1007800062E370E08CEA91E00E94AD1065E271E0F6
:100790008CEA91E00E94141348EC50E06AEF70E09C
:1007A0008CEA91E00E94AD1066E671E08CEA91E07F
:1007B0000E94141368EE73E080E090E00E947512CE
:1007C0006091E4017091E5018CEA91E00E9440099A
:1007D00040E050E060E070E08CEA91E00C94AD10F5
:1007E0000E941F039DCF1F920F920FB60F921124EC
:1007F0008F939F93AF93BF938091F1019091F201FA
:10080000A091F301B091F4010196A11DB11D809357
:10081000F1019093F201A093F301B093F401BF9121
:10082000AF919F918F910F900FBE0F901F901895D1
:1008300090910801909307018093080108954091D9
:10084000B2015091B30180910501909106014817C2
:10085000590798F48091020198E0899F400D511D3D
:1008600011245093B3014093B2016091B001709193
:10087000B1018CEA91E00C94AD100895843091059B
:10088000F1F06CF48130910551F11CF4892B21F1C8
:1008900022C08230910569F00397E9F40DC08630DB
:1008A000910599F07CF08730910591F0099799F4C2
:1008B00013C020EE37E015C020EE3FEF12C02FE14D
:1008C00030E00FC02FE138EF0CC02FEF37E009C048
:1008D0002FEF3FEF06C0089520E030E002C020E097
:1008E00038EFC90108954F925F926F927F928F9275
:1008F0009F92AF92BF92CF92DF92EF92FF920F93AF
:100900001F93182F80910801823059F120F4813013
:1009100009F0C5C308C0C12ED12C8330D1F1843079
:1009200009F0BDC3DDC01B3119F482E090E0B4C30F
:100930001D3089F44091B2015091B3011092B10180
:100940001092B00160E070E08CEA91E00E94AD107E
:1009500020E030E0AAC31A3009F0A1C30E941F04AE
:10096000F7CF1D34F1F138F4143409F452C01534C2
:1009700009F095C309C01B3521F0133609F08FC368
:10098000A6C283E090E088C31092B1011092B0013A
:1009900040C080E3C81AD1089AE0C916D10448F4CF
:1009A00084E090E00E941804EE24D7FCE094FE2C32
:1009B000B2C0143409F44CC050F4123451F160F553
:1009C0001D3309F488C0113409F064C30AC0133719
:1009D00009F44AC0153709F464C0183409F05AC341
:1009E0007CC24091B2015091B3014115510509F407
:1009F00051C38091020138E0839F401951091124AD
:100A00005093B3014093B2016091B0017091B10174
:100A10003DC10E941F043EC38091030190910401D7
:100A2000209102016091B0017091B10136E0239FE5
:100A3000600D711D11248617970708F4BC0170938F
:100A4000EB016093EA014091B2015091B3011AC1E8
:100A5000809102016091B0017091B10196E0899F8F
:100A6000601971091124EBCF8091B2019091B3010B
:100A7000A0E0B0E08093090290930A02A0930B02D9
:100A8000B0930C028091B0019091B101A0E0B0E070
:100A90008093050290930602A0930702B093080288
:100AA000F9C20091090210910A0220910B023091C3
:100AB0000C021093B3010093B20160910502709192
:100AC000060280910702909108027093B101609331
:100AD000B001A801DBC084E090E00E94180467C266
:100AE00030E3C31AD1088AE0C816D104E8F4EE2432
:100AF000D7FCE094FE2C2091EC013091ED01409167
:100B0000EE015091EF01AAE0B0E00E94C315C60EBD
:100B1000D71EE81EF91EC092EC01D092ED01E092C2
:100B2000EE01F092EF0114CF183409F442C0E0F462
:100B3000133409F4E7C060F4113409F476C008F006
:100B4000AAC01C3209F40FC21B3309F0A3C228C08B
:100B5000153409F4A0C008F4FCC0163409F465C0CB
:100B6000173409F097C220C11D3609F45AC148F460
:100B70001636F9F0193609F423C21A3409F08AC27C
:100B800099C1113709F4AEC120F41E3609F082C2B2
:100B9000B2C1123709F43CC1133709F07BC22FC12F
:100BA0008091EC019091ED019093EB018093EA012B
:100BB000FEC14091EC015091ED016091EE01709108
:100BC000EF01411551056105710529F041505109A9
:100BD0006109710903C040E050E0BA014093EC01A3
:100BE0005093ED016093EE017093EF018091050148
:100BF00090910601A0E0B0E084179507A607B7071B
:100C000010F4AC01BD015093E9014093E801509309
:100C1000B3014093B2018091EA019091EB0190936E
:100C2000B1018093B001BC0131C04091EC01509101
:100C3000ED016091EE017091EF01411551056105E3
:100C4000710521F441E050E060E070E04093EC0178
:100C50005093ED016093EE017093EF01E091B201CA
:100C6000F091B301E41BF50BF093E901E093E80187
:100C7000F093B301E093B201AF01113409F43DC028
:100C800060E070E07093B1016093B0018CEA91E094
:100C90000E94AD10FFC14091EC015091ED016091B7
:100CA000EE017091EF01411551056105710521F4C7
:100CB00041E050E060E070E04093EC015093ED01C2
:100CC0006093EE017093EF01A0910501B0910601D0
:100CD000E091B201F091B301E40FF51FAE17BF0729
:100CE00008F4FD01F093E901E093E801F093B3010A
:100CF000E093B201AF01123419F66091EA017091EC
:100D0000EB01C0CF8091EC019091ED01A091EE013B
:100D1000B091EF010097A105B10521F481E090E0C9
:100D2000A0E0B0E08093EC019093ED01A093EE0180
:100D3000B093EF0120910301309104016091B00163
:100D40007091B101680F791F2617370700F5B901B7
:100D50001EC08091EC019091ED01A091EE01B09147
:100D6000EF010097A105B10521F481E090E0A0E03A
:100D7000B0E08093EC019093ED01A093EE01B0936D
:100D8000EF016091B0017091B101681B790B709314
:100D9000EB016093EA014091E8015091E901509321
:100DA000B3014093B2016ECF8091EC019091ED01BF
:100DB000A091EE01B091EF010097A105B10521F0DE
:100DC0000197A109B10903C080E090E0DC018093A4
:100DD000EC019093ED01A093EE01B093EF0100912F
:100DE00003011091040120E030E0BC01CD010617A1
:100DF00017072807390758F6C901B801C8CF60910D
:100E0000EC01609302018CEA91E00E94B31042C1B0
:100E10006091EC01609301018CEA91E00E94860DE3
:100E200039C16091EC017091ED018091EE019091DA
:100E3000EF018B019C010E511109210931090A3082
:100E400011052105310598F42EE130E040E050E035
:100E50000E94DE15CB010E943E049093E70180932F
:100E6000E6014091E4015091E501BC011EC08B01F7
:100E70009C0108521109210931090A301105210587
:100E8000310508F007C12EE130E040E050E00E945B
:100E9000DE15CB010E943E049093E5018093E401AE
:100EA0006091E6017091E701AC018CEA91E00E944B
:100EB000B910F0C08091EC019091ED01A091EE018C
:100EC000B091EF010297A105B10509F0E3C060E020
:100ED00070E08CEA91E00E94400940E050E060E060
:100EE00070E0D4CE6091EC017091ED018091000131
:100EF0000E940711CFC08091EC019091ED01A0916B
:100F0000EE01B091EF0185309105A105B10509F41D
:100F1000C1C00697A105B10509F0BCC063E371E04B
:100F20008CE192E00E9414136091B0017091B101C4
:100F30006F5F7F4F4AE050E08CE192E00E94B01377
:100F400068E371E08CE192E00E9414136091B201B9
:100F50007091B3016F5F7F4F4AE050E08CE192E007
:100F60000E94B61397C08091EC019091ED01A09181
:100F7000EE01B091EF019093E9018093E801409177
:100F8000EA015091EB0160E070E04093FD01509365
:100F9000FE016093FF0170930002AA27BB27809394
:100FA000010290930202A0930302B09304021092F4
:100FB000EC011092ED011092EE011092EF01C8CCFD
:100FC0008091EC019091ED01A091EE01B091EF01C3
:100FD0008C019093E9018093E801E091EA01F0919E
:100FE000EB012F01612C712C4092F5015092F6011A
:100FF0006092F7017092F801AA27BB278093F9014C
:101000009093FA01A093FB01B093FC01C090FD0105
:10101000D090FE01E090FF01F0900002809001026C
:1010200090900202A0900302B09004029C01AD01D6
:10103000281939094A095B09C301B2016C197D09F4
:101040008E099F090E94CE156093E0017093E10123
:101050008093E2019093E301015011099F01215017
:101060003109A401B6018CEA91E00E94E00B8CEA00
:1010700091E00E94B60D8CEA91E00E94CC0D85E0D3
:1010800090E00E9418046FE371E08CE192E00E940E
:1010900033135ECC81E090E00E94180459CC81E0CB
:1010A00090E00E941804212F30E0C9011F910F9198
:1010B000FF90EF90DF90CF90BF90AF909F908F9078
:1010C0007F906F905F904F900895809108018530D8
:1010D00009F083C08CE192E00E94CE130297B4F134
:1010E0008CE192E00E94FA138093DA018CE192E0A5
:1010F0000E94FA138093DB01682F8CEA91E00E9432
:1011000086096091DA018CEA91E00E94860981E00B
:101110008093D9018091DC019091DD01A091DE01E5
:10112000B091DF010196A11DB11D8093DC01909368
:10113000DD01A093DE01B093DF011092F101109266
:10114000F2011092F3011092F40108958091D901F7
:10115000813009F05BC04091DC015091DD0160916C
:10116000DE017091DF018091E0019091E101A09199
:10117000E201B091E301481759076A077B0761F064
:101180008091F1019091F201A091F301B091F401ED
:101190000397A105B105D0F11092D9011092DC019D
:1011A0001092DD011092DE011092DF012AE030E0A2
:1011B00040E050E0BA018CE192E00E94A3138CEA77
:1011C00091E00E94C10D81E090E00E94180466E564
:1011D00071E08CE192E00C9414138CE192E00E9497
:1011E000CE13892B99F08CE192E00E94FA13809340
:1011F000F001882359F00E9473041816190634F47C
:101200006091F0018CEA91E00C941613089528E0A7
:1012100049E06AE08CEA91E00C945E0961E08AE0C2
:101220000E94CA1161E08AE00E9492118CB580612F
:101230008CBD8CB580648CBD61E08DE00E94921104
:1012400061E08BE00C949211811103C08CB5806237
:1012500002C08CB58F7D8CBD08959CB5937F982B73
:101260009CBD08952CB5982F93702C7F922B9CBD1C
:101270009DB582FB882780F99E7F982B9DBD0895A0
:10128000EF92FF920F931F93DC01ED91FC91119768
:101290001E960D911C911F971C962D913C911D97A8
:1012A0000684F785E02D7B0140E050E060E070E0CF
:1012B00009951F910F91FF90EF900895EF92FF9283
:1012C0000F931F93CF93DF931F92CDB7DEB77C01AF
:1012D000062F142F40E451E060EF70E029830E9454
:1012E0005E0F8FE691E0F7019183808303A314A33F
:1012F000298125A381E0808F10A616A20F90DF918F
:10130000CF911F910F91FF90EF9008956EBD000057
:1013100000000000000000000000000000000000CD
:101320000895CF93DF93EC01ED8DFE8D90818CA518
:10133000809589238083EB8DFC8D90818AA5809593
:1013400089238083E9A1FAA190818BA580958923C7
:101350008083CE010E948609E9A1FAA180819BA524
:10136000892B8083DF91CF910895662311F061E28C
:1013700001C060E20C949109CF93DF93EC01ED8DF5
:10138000FE8D80819CA5892B8083EB8DFC8D9081C7
:101390008AA5809589238083E9A1FAA190818BA5F4
:1013A000809589238083CE010E948609E9A1FAA154
:1013B00080819BA5892B8083DF91CF910895CF9366
:1013C000DF93EC0161E08DA10E94921160E08DA19C
:1013D0000E94CA1161E08CA10E94921161E08BA170
:1013E0000E9492114BA150E0FA01E557FA4FE491A7
:1013F000F0E0EE0FFF1FE156FA4F8591949189A31B
:101400009AA32CA130E0F901E557FA4F849190E0BE
:10141000880F991F81569A4FFC01859194918D8F69
:101420009E8FFA01E958FA4F44914BA7F901E95808
:10143000FA4F24912CA7888D882379F00E940E09F9
:1014400084E00E94320981E00E94240981E00E9428
:10145000240980E00E942D0941C061E088A50E9416
:10146000921161E08EA10E94921160E08FA10E9412
:10147000921148A550E0FA01E557FA4FE491F0E0E7
:10148000EE0FFF1FE156FA4F85919491DC019C8F7E
:101490008B8F2EA130E0F901E557FA4F849190E04F
:1014A000880F991F81569A4FFC0185919491898FDD
:1014B0009A8FFA01E958FA4F44914AA7F901E9587D
:1014C000FA4F249129A78C91409584238C93E98D20
:1014D000FA8D908189A580958923808361E08DA113
:1014E0000E94CA1165E070E080E090E00E947512F1
:1014F00060E08DA10E94CA1164E170E080E090E09C
:101500000E94751261E08DA10E94CA1166E970E027
:1015100080E090E00E9475126BECCE010E94910970
:1015200069E3CE010E94BC096CE2CE010E94BC09B5
:1015300060E0CE010E94BC0964E3CE010E94BC09B8
:1015400062E0CE010E94BC096FECCE010E949109BD
:1015500060E0CE010E94BC0961ECCE010E94BC0992
:1015600060E3CE010E94BC0968EECE010E949109A1
:1015700065E8CE010E94BC0960E0CE010E94BC0972
:1015800068E7CE010E94BC096AEECE010E94910973
:1015900060E0CE010E94BC0960E0CE010E94BC095F
:1015A0006DEECE010E94910964E6CE010E94BC0955
:1015B00063E0CE010E94BC0962E1CE010E94BC0939
:1015C00061E8CE010E94BC0967EFCE010E9491093B
:1015D00060E2CE010E94BC0960ECCE010E9491093C
:1015E00063E2CE010E94BC0961ECCE010E94910928
:1015F00060E1CE010E94BC0965ECCE010E94910918
:101600006EE3CE010E94BC0968E2CE010E94BC09D3
:1016100067ECCE010E94910966E8CE010E94BC09E8
:1016200066E3CE010E94910968ECCE010E94BC09DC
:101630006AE3CE010E94910965E5CE010E94BC09D2
:1016400061EBCE010E94910960E0CE010E94BC09CD
:1016500068E1CE010E94BC0966EBCE010E949109AF
:1016600068E0CE010E94BC0962E8CE010E94BC097C
:1016700067E2CE010E94BC0962EFCE010E9491098F
:1016800060E0CE010E94BC0966E2CE010E94910991
:1016900061E0CE010E94BC0960EECE010E9491097A
:1016A0006FE0CE010E94BC0961E3CE010E94BC093B
:1016B0006BE2CE010E94BC096CE0CE010E94BC0925
:1016C0006EE0CE010E94BC0968E0CE010E94BC0918
:1016D0006EE4CE010E94BC0961EFCE010E94BC09FC
:1016E00067E3CE010E94BC0967E0CE010E94BC09FD
:1016F00060E1CE010E94BC0963E0CE010E94BC09FA
:101700006EE0CE010E94BC0969E0CE010E94BC09D6
:1017100060E0CE010E94BC0961EECE010E949109F9
:1017200060E0CE010E94BC096EE0CE010E94BC09BF
:1017300064E1CE010E94BC0963E0CE010E94BC09B5
:1017400061E1CE010E94BC0967E0CE010E94BC09A4
:1017500061E3CE010E94BC0961ECCE010E94BC098C
:1017600068E4CE010E94BC0968E0CE010E94BC0979
:101770006FE0CE010E94BC096CE0CE010E94BC0962
:1017800061E3CE010E94BC0966E3CE010E94BC0960
:101790006FE0CE010E94BC0961E1CE010E94910977
:1017A00068E770E080E090E00E94751269E2CE0187
:1017B0000E9491096CE2CE01DF91CF910C949109C6
:1017C000CF92DF92FF920F931F93CF93DF9300D0BE
:1017D00000D01F92CDB7DEB76C01F62E6AE22B83E4
:1017E0003A834D835C8379830E9491097981672FC5
:1017F000C6010E94BC096F2DC6010E94BC093A8136
:10180000632FC6010E94BC092B81622FC6010E9472
:10181000BC096BE2C6010E9491095C81652FC6017B
:101820000E94BC094D81642FC6010E94BC09612F32
:10183000C6010E94BC09602FC6010E94BC096CE26F
:10184000C6010F900F900F900F900F90DF91CF91E6
:101850001F910F91FF90DF90CF900C949109AF9260
:10186000BF92CF92DF92EF92FF920F931F93CF938D
:10187000DF93EC01690158012C853D8562177307E0
:101880000CF04EC08E859F85481759070CF048C054
:10189000FB01EC0DFD1D2E173F071CF46901C61A54
:1018A000D70A9A012A0D3B1D821793071CF45C018D
:1018B000A41AB50A8A010A0D1B1D015011099B01CA
:1018C0002C0D3D1D21503109CE010E94E00BED8D04
:1018D000FE8D80819CA5892B8083E9A1FAA190814E
:1018E0008BA580958923808310C06F2DCE010E9427
:1018F00086096E2DCE010E9486090150110910162D
:1019000011069CF381E0A81AB1081A141B0414F400
:101910008601F5CFE9A1FAA180819BA5892B80835F
:10192000DF91CF911F910F91FF90EF90DF90CF90BB
:10193000BF90AF900895CF92DF92EF92FF920F93F6
:101940001F93CF93DF93EC01CA017901D02EC12EF2
:101950002C853D8562177307D4F54E855F85841706
:101960009507ACF5AB014E0D5F1D241735071CF430
:101970007901E61AF70A9B012E0D3F1D215031090E
:101980008C01AC01CE010E94E00BED8DFE8D8081BB
:101990009CA5892B8083E9A1FAA190818BA58095D4
:1019A000892380830BC06C2DCE010E9486096D2D8A
:1019B000CE010E94860981E0E81AF108E114F104E1
:1019C00091F7E9A1FAA180819BA5892B8083DF9102
:1019D000CF911F910F91FF90EF90DF90CF900895DE
:1019E000CF92DF92EF92FF920F931F93CF93DF93EB
:1019F000EC01CB017901D02EC12E2C853D856217DB
:101A00007307D4F52E853F8542175307ACF5BA010D
:101A10006E0D7F1D261737071CF47901E41AF50AAD
:101A20008A010E0D1F1D015011099C01BC01CE0140
:101A30000E94E00BED8DFE8D80819CA5892B80831B
:101A4000E9A1FAA190818BA58095892380830BC0A1
:101A50006C2DCE010E9486096D2DCE010E94860953
:101A600081E0E81AF108E114F10491F7E9A1FAA183
:101A700080819BA5892B8083DF91CF911F910F914E
:101A8000FF90EF90DF90CF900895EF92FF920F9329
:101A90001F93CF93DF93EC01F22EE32E77FD2FC03F
:101AA0002C853D856217730754F557FD28C02E8598
:101AB0003F85421753071CF58A010F5F1F4F9B019B
:101AC0002F5F3F4F0E94E00BED8DFE8D80819CA526
:101AD000892B8083E9A1FAA190818BA58095892328
:101AE00080836E2DCE010E9486096F2DCE010E944B
:101AF0008609E9A1FAA180819BA5892B8083DF91CA
:101B0000CF911F910F91FF90EF9008951F93CF9366
:101B1000DF93EC01162F66E30E949109612F637039
:101B20006D8B623041F0633089F0613011F068E410
:101B300003C068E20CC068E8CE010E94BC0980EFD7
:101B400090E09D878C8780E491E00AC068EECE012A
:101B50000E94BC0980E491E09D878C8780EF90E033
:101B60009F878E87DF91CF911F910895DC015D964D
:101B7000ED91FC915E9720819C968C91282B20837F
:101B80000895DC019196ED91FC91929720819B96AE
:101B90008C91282B20830895DC019196ED91FC9186
:101BA000929720819B968C918095822380830895C3
:101BB0002F923F924F925F926F927F928F929F925D
:101BC000AF92BF92CF92DF92EF92FF920F931F934B
:101BD000CF93DF9300D000D0CDB7DEB74C017C832C
:101BE0006B836A015901C8018701AC014C195D0979
:101BF00057FF03C051954195510995016B817C8137
:101C0000261B370B37FF03C031952195310922245C
:101C10002394312C2417350714F0212C312C211456
:101C2000310459F03A2D2B2D5C01832F922F3B81EB
:101C30002C81DC82CB82C32ED22EAB81BC81AA1632
:101C4000BB065CF43C2D2D2D6C01832F922F3B8124
:101C50002C81BC82AB82A32EB22E2501EB81FC81AC
:101C60004E1A5F0A3C016C187D0877FE03C0719420
:101C700061947108720157FE03C0FFEFEF1AFF0A6B
:101C8000F594E794C816D9062CF421E030E03A83A5
:101C9000298328C06FEF7FEF7A83698323C0D40143
:101CA000ED91FC910480F581E02D9801211431041F
:101CB00021F04B815C81B60103C0A6016B817C8160
:101CC000C4010995E618F708F7FE06C0E981FA8114
:101CD000CE0EDF1EE40CF51C2B813C812F5F3F4FA5
:101CE0003C832B836B817C81A616B706C4F60F90CC
:101CF0000F900F900F90DF91CF911F910F91FF9058
:101D0000EF90DF90CF90BF90AF909F908F907F909B
:101D10006F905F904F903F902F9008956F927F92B9
:101D20008F929F92AF92BF92CF92DF92EF92FF92EB
:101D30000F931F93CF93DF93EC015B016A0139018D
:101D40004801E881F9810284F385E02D8701099536
:101D5000E881F981A601480D591D415051090284BD
:101D6000F385E02D9301B501CE010995E881F98154
:101D70000084F185E02D9401A601B501CE010995FD
:101D8000E881F981B501660D771D61507109008404
:101D9000F185E02D9401A601CE010995DF91CF9147
:101DA0001F910F91FF90EF90DF90CF90BF90AF9079
:101DB0009F908F907F906F900895EF92FF920F9376
:101DC0001F93DC01ED91FC91240F351F2150310947
:101DD0000680F781E02D780189019B0109951F910B
:101DE0000F91FF90EF900895EF92FF920F931F9342
:101DF000DC01ED91FC91260F371F2150310906803F
:101E0000F781E02D78018A0109951F910F91FF90CC
:101E1000EF9008956F927F928F929F92AF92BF92B0
:101E2000CF92DF92EF92FF920F931F93CF93DF93A6
:101E30005C014A0169013801EB01C60ED71E0DC0D5
:101E4000D501ED91FC910084F185E02D870193018E
:101E5000A401BE01C50109952196CC15DD0584F3C9
:101E6000DF91CF911F910F91FF90EF90DF90CF9076
:101E7000BF90AF909F908F907F906F900895EF925A
:101E8000FF920F931F93DC01ED91FC9111971E9629
:101E90000D911C911F971C962D913C911D970684C6
:101EA000F785E02D7B0140E050E060E070E00995AF
:101EB0001F910F91FF90EF9008950895FC011382F8
:101EC000128287E891E091838083718760875387CE
:101ED00042877587648757874687158A15821482DB
:101EE0001782168221E0248B8FEF9FEF938B828BDA
:101EF000918B808B268B08952F923F924F925F9209
:101F00006F927F928F929F92AF92BF92CF92DF9209
:101F1000EF92FF920F931F93CF93DF93CDB7DEB76E
:101F20002E970FB6F894DEBF0FBECDBF9E878D876C
:101F30003A011E830D83F886EF82DC011C968D9199
:101F40009C911D97681779070CF09AC0FD01868552
:101F50009785481759070CF093C0CB01F6E0CF9E48
:101F6000800D911D1124181619060CF089C08C2DB6
:101F700090E09A878987CA01A8E0CA9E800D911DCA
:101F80001124181619060CF07BC05B017A83698353
:101F90001B8218E6812E10E0912E861A970AB5E072
:101FA0002B9F800C911C1124EB81E53029F0F4016A
:101FB000EA0DFB1DD49001C0D12CF981FB872A8149
:101FC0002C871301230138E03C83D0FE13C0AD857C
:101FD000BE85ED91FC91B1E0CB1206C00480F58185
:101FE000E02D2D813E8119C00684F785E02DED801E
:101FF000FE801EC0EF81F8852D813E81E217F30738
:1020000009F1AD85BE85ED91FC91B1E0CB120BC01D
:102010000480F581E02D2F813885A201B5018D85E1
:102020009E8509950FC00684F785E02DEF80F88422
:102030000C2D10E02C2D30E0A1016B857C858D8569
:102040009E850995D694EC81E150EC8329853A85EB
:10205000220E331E3FEF431A530AE111B6CF8B8194
:102060008F5F8B83A981BA81E985FA85AE0FBF1F87
:10207000BA83A983FFEFAF1ABF0A863009F094CF65
:102080002E960FB6F894DEBF0FBECDBFDF91CF9175
:102090001F910F91FF90EF90DF90CF90BF90AF9086
:1020A0009F908F907F906F905F904F903F902F9078
:1020B0000895CF92EF92FF920F931F93CF93DF93E8
:1020C000EC01262F6A3049F42C898E819F8138E0FB
:1020D000239F800D911D112432C06D30A1F1EA883B
:1020E000FB88088919894E815F816C817D81CC884C
:1020F0000E947C0F2C89422F50E08C819D8136E01C
:10210000239F800D911D11249D838C832E89222372
:10211000D1F06AEF64039001659F300D11246C8546
:102120007D85260F371F2817390768F403E0440F11
:10213000551F0A95E1F78E819F81840F951F9F831C
:102140008E831D821C8281E090E0DF91CF911F91F0
:102150000F91FF90EF90CF900895FC0175836483F9
:10216000578346830895611101C061E0FC01648BCF
:102170000895FC01718B608B538B428B08951F92E5
:102180000F920FB60F9211242F933F934F935F93AB
:102190006F937F938F939F93AF93BF93EF93FF932F
:1021A000E0911102F09112020995FF91EF91BF9118
:1021B000AF919F918F917F916F915F914F913F91DF
:1021C0002F910F900FBE0F901F9018958E3008F032
:1021D0008E5087702091090140E4249F90011124C2
:1021E000822B80937C0080917A00806480937A00B7
:1021F00080917A0086FDFCCF2091780030917900A3
:10220000932F80E0AC01422B9A01C90108951F93DE
:10221000CF93DF93182FEB0161E00E94921120977A
:1022200011F460E004C0CF3FD10539F461E0812FA3
:10223000DF91CF911F910C94CA11E12FF0E0ED597D
:10224000FA4FE491E330B9F028F4E13051F0E23094
:10225000B1F50CC0E63019F1E73049F1E43079F519
:1022600014C084B5806884BDC7BD2EC084B58062AB
:1022700084BDC8BD29C080918000806880938000A3
:10228000D0938900C09388001FC080918000806235
:1022900080938000D0938B00C0938A0015C08091FA
:1022A000B00080688093B000C093B3000DC08091EF
:1022B000B00080628093B000C093B40005C0C03805
:1022C000D1050CF0B3CFADCFDF91CF911F91089521
:1022D000833069F028F48130A1F0823011F514C008
:1022E0008630B1F08730C1F08430D9F404C08091D9
:1022F00080008F7703C0809180008F7D8093800065
:10230000089584B58F7702C084B58F7D84BD08950C
:102310008091B0008F7703C08091B0008F7D809353
:10232000B0000895CF93DF9390E0FC01E958FA4F95
:102330004491FC01E557FA4F8491882341F190E0E4
:10234000880F991FFC01E755FA4F25913491D90167
:1023500081569A4FFC0185919491C82FD92F9FB730
:10236000F8948C91611106C0409584238C938881E8
:10237000842308C0623041F4242F209582238C935B
:102380008881842B888302C0842B8C939FBFDF912C
:10239000CF9108950F931F93CF93DF931F92CDB7E3
:1023A000DEB7282F30E0F901ED59FA4F8491F90199
:1023B000E958FA4F1491F901E557FA4F04910023B7
:1023C000D1F0882321F069830E9468116981E02F90
:1023D000F0E0EE0FFF1FE156FA4F85919491DC017A
:1023E0009FB7F8948C91611103C01095812301C0AF
:1023F000812B8C939FBF0F90DF91CF911F910F91F5
:1024000008951F920F920FB60F9211242F933F93AE
:102410008F939F93AF93BF93809113029091140277
:10242000A0911502B091160230911B02232F2D5F4F
:102430002D3720F40196A11DB11D05C0232F2A5769
:102440000296A11DB11D20931B028093130290934D
:102450001402A0931502B093160280911702909176
:102460001802A0911902B0911A020196A11DB11D86
:102470008093170290931802A0931902B0931A0246
:10248000BF91AF919F918F913F912F910F900FBE70
:102490000F901F9018950F931F939FB7F89400917A
:1024A0001702109118022091190230911A0286B574
:1024B000A89B06C08F3F21F00F5F1F4F2F4F3F4F4C
:1024C0009FBF322F212F102F0027080F111D211D14
:1024D000311D42E0000F111F221F331F4A95D1F713
:1024E000B801C9011F910F910895CF92DF92EF9229
:1024F000FF92CF93DF936B017C010E944B12EB01A3
:102500000EC00E944B126C1B7D0B683E734038F06E
:1025100081E0C81AD108E108F108C851DC4FC114A4
:10252000D104E104F10469F7DF91CF91FF90EF90BE
:10253000DF90CF900895789484B5826084BD84B58F
:10254000816084BD85B5826085BD85B5816085BDAE
:10255000EEE6F0E0808181608083E1E8F0E01082C7
:10256000808182608083808181608083E0E8F0E008
:10257000808181608083E1EBF0E0808184608083F2
:10258000E0EBF0E0808181608083EAE7F0E0808129
:102590008460808380818260808380818160808389
:1025A0008081806880831092C1000895CF92DF926D
:1025B000EF92FF920F931F93CF93DF936C01EB0188
:1025C0007A01E60EF71E00E010E00BC06991D6011B
:1025D000ED91FC910190F081E02DC6010995080F65
:1025E000191FCE15DF0591F7C801DF91CF911F911B
:1025F0000F91FF90EF90DF90CF90089561157105D6
:1026000081F0DB010D900020E9F7AD014150510947
:10261000461B570BDC01ED91FC910280F381E02D0C
:10262000099480E090E008950C94FE12DC01ED9195
:10263000FC910190F081E02D09940F931F93CF93AB
:10264000DF93EC016DE00E9416138C016AE0CE016D
:102650000E9416139C01200F311FC901DF91CF91F9
:102660001F910F9108950F931F93CF93DF93EC0168
:102670000E94FE128C01CE010E941D139801280FAA
:10268000391FC901DF91CF911F910F9108954F928A
:102690005F926F927F929F92AF92BF92CF92DF92A2
:1026A000EF92FF920F931F93CF93DF93CDB7DEB7D7
:1026B000A1970FB6F894DEBF0FBECDBF5C016A01D3
:1026C0007B01922E19A281E0821710F08AE0982EE9
:1026D0008E010F5D1F4F492C512C612C712CC701AD
:1026E000B601A30192010E94DE158C2D929E8019E5
:1026F0001124015011098A3014F4805D01C0895CF5
:10270000F801808369017A01C114D104E104F10464
:1027100031F7B801C5010E94FE12A1960FB6F894D8
:10272000DEBF0FBECDBFDF91CF911F910F91FF9004
:10273000EF90DF90CF90BF90AF909F907F906F9081
:102740005F904F9008952115310541F4DC01ED9122
:10275000FC910190F081E02D642F09940C944713B3
:102760009A01AB0160E070E00C94A3130F931F93E8
:10277000CF93DF93EC019A01AB0160E070E00E941F
:10278000A3138C01CE010E941D139801280F391F3D
:10279000C901DF91CF911F910F910895FC018485AC
:1027A0009585FC01F39520813181FC01EE5FFE4FA0
:1027B00080819181281B390B3327C9010895FC01C1
:1027C00084859585FC01F39540815181FC01EE5F84
:1027D000FE4F208131814217530741F00190F08173
:1027E000E02DE80FF91F208130E002C02FEF3FEF0E
:1027F000C9010895FC0184859585FC01F39540810C
:102800005181FC01EE5FFE4F208131814217530759
:1028100079F0A081B181A80FB91F8C9120813181FD
:102820002F5F3F4F332731832083282F30E002C0B2
:102830002FEF3FEFC9010895FC0181A1882329F002
:10284000A489B5898C9186FFFBCF11A20895CF93FF
:10285000DF93FC0126853785D901B3958D919C9135
:10286000119701969927E901CE5FDE4F4881598182
:1028700084179507D9F30D90BC91A02DA20FB31F1B
:102880006C93A685B785B39511969C938E93A68974
:10289000B7892C9181E090E0078C02C0880F991FC6
:1028A0000A94E2F7282B2C9381E081A30488F58910
:1028B000E02D80818064808381E090E0DF91CF9182
:1028C000089508951F920F920FB60F9211242F931F
:1028D0003F934F938F939F93EF93FF938091C0000B
:1028E00082FD1BC04091C600809142049091430438
:1028F000019699272091440430914504821793074B
:1029000071F0E0914204F0914304EE5BFC4F408390
:10291000909343048093420402C08091C600FF91CB
:10292000EF919F918F914F913F912F910F900FBEFB
:102930000F901F9018958CE192E00E94CE13892B86
:1029400011F00C94611408951F920F920FB60F921C
:1029500011242F933F938F939F93EF93FF93209195
:102960003E0330913F03809140039091410328172B
:10297000390731F48091C1008F7D8093C10013C06D
:10298000E0914003F0914103E25CFD4F2081809192
:1029900040039091410301969927909341038093BE
:1029A00040032093C600FF91EF919F918F913F913B
:1029B0002F910F900FBE0F901F901895CF92DF921E
:1029C000EF92FF92CF93DF93EC016A017B014115F7
:1029D00081EE580761057105F9F0EC89FD8981E008
:1029E00090E008A002C0880F991F0A94E2F7808344
:1029F00060E079E08DE390E0A70196010E94DE158A
:102A00002150310941095109569547953795279528
:102A1000211580E1380798F0EC89FD89108260E883
:102A200074E88EE190E0A70196010E94DE15215026
:102A30003109410951095695479537952795E889F8
:102A4000F9893083EA89FB89208319A2EE89FF89FD
:102A5000408181E090E09C010C8C02C0220F331F6A
:102A60000A94E2F7422B4083EE89FF8940819C0162
:102A70000D8C02C0220F331F0A94E2F7422B4083D1
:102A8000EE89FF8940819C010E8C02C0220F331F0A
:102A90000A94E2F7422B4083EE89FF8920810F8C54
:102AA00002C0880F991F0A94E2F7809582238083E1
:102AB000DF91CF91FF90EF90DF90CF90089510922B
:102AC0001F0210921E0288EE93E0A0E0B0E0809317
:102AD000200290932102A0932202B09323028FE957
:102AE00091E090931D0280931C0282E493E0909306
:102AF0002902809328028EE392E090932B02809328
:102B00002A0285EC90E090932D0280932C0284ECB5
:102B100090E090932F0280932E0280EC90E09093AF
:102B200031028093300281EC90E0909333028093E5
:102B3000320282EC90E0909335028093340286EC6E
:102B400090E0909337028093360284E080933802BD
:102B500083E08093390287E080933A0285E0809396
:102B60003B0281E080933C02089508950E949B12ED
:102B70000E945E03CBE9D4E10E9465082097E1F34F
:102B80000E949B14F9CF0E940016A59F900DB49F40
:102B9000900DA49F800D911D11240895DB018F934A
:102BA0009F930E94C315BF91AF91A29F800D911D6D
:102BB000A39F900DB29F900D11240895A1E21A2EAB
:102BC000AA1BBB1BFD010DC0AA1FBB1FEE1FFF1FD1
:102BD000A217B307E407F50720F0A21BB30BE40B21
:102BE000F50B661F771F881F991F1A9469F7609568
:102BF0007095809590959B01AC01BD01CF01089522
:102C0000A29FB001B39FC001A39F01D0B29F700DDE
:102C1000811D1124911D0895EE0FFF1F0590F49161
:082C2000E02D0994F894FFCFA8
:102C28000501023F01EF0001010157656C636F6DFB
:102C38006520746F20746865206F64726F69645FC3
:102C480073686F770048656C6C6F204F44524F492A
:102C5800442100726F773D002C20636F6C3D006348
:102C680061742074686520726177206461746120E2
:102C7800696D616765004E4F545350454349414C57
:102C880020536172740076312E3100000000005923
:102C980010D612450DD80DF00C9B0C8E0E2F0C4043
:102CA80009B509000000005910D612B515D80DDD78
:102CB8000EF40E8E0E0A0F3F0F5D0F000000002766
:0C2CC80014D612CE13FA13DF131C1400F4
:00000001FF
