:100000000C94EC020C9414030C9414030C9414033D
:100010000C9414030C9414030C9414030C94140304
:100020000C9414030C9414030C9414030C941403F4
:100030000C9414030C944C130C9414030C9414039C
:100040000C9426150C9414030C947B170C94BE1777
:100050000C9414030C9414030C9414030C941403C4
:100060000C94A60A0C9414032E0431041F042104DA
:100070002304250427042A042D042E040000000074
:10008000003E5B4F5B3E3E6B4F6B3E1C3E7C3E1C1E
:10009000183C7E3C181C577D571C1C5E7F5E1C0064
:1000A000183C1800FFE7C3E7FF0018241800FFE71B
:1000B000DBE7FF30483A060E2629792926407F05DE
:1000C0000507407F05253F5A3CE73C5A7F3E1C1CF4
:1000D00008081C1C3E7F14227F22145F5F005F5FB4
:1000E00006097F017F006689956A606060606094A0
:1000F000A2FFA29408047E040810207E20100808A5
:100100002A1C08081C2A08081E101010100C1E0CAF
:100110001E0C30383E3830060E3E0E060000000041
:100120000000005F00000007000700147F147F1428
:10013000242A7F2A1223130864623649562050006D
:1001400008070300001C2241000041221C002A1C59
:100150007F1C2A08083E0808008070300008080844
:100160000808000060600020100804023E51494564
:100170003E00427F400072494949462141494D3382
:100180001814127F1027454545393C4A49493141E9
:10019000211109073649494936464949291E0000B7
:1001A000140000004034000000081422411414140C
:1001B0001414004122140802015909063E415D59F8
:1001C0004E7C1211127C7F494949363E4141412201
:1001D0007F4141413E7F494949417F090909013E2B
:1001E000414151737F0808087F00417F4100204052
:1001F000413F017F081422417F404040407F021C64
:10020000027F7F0408107F3E4141413E7F0909097A
:10021000063E4151215E7F09192946264949493246
:1002200003017F01033F4040403F1F2040201F3F0C
:100230004038403F63140814630304780403615991
:10024000494D43007F4141410204081020004141D3
:10025000417F04020102044040404040000307087F
:100260000020545478407F2844443838444444287B
:10027000384444287F385454541800087E09021822
:10028000A4A49C787F0804047800447D40002040AA
:10029000403D007F1028440000417F40007C0478EE
:1002A00004787C080404783844444438FC18242436
:1002B0001818242418FC7C080404084854545424B6
:1002C00004043F44243C4040207C1C2040201C3C33
:1002D0004030403C44281028444C9090907C44642A
:1002E000544C4400083641000000770000004136BD
:1002F000080002010204023C2623263C1EA1A16143
:10030000123A4040207A3854545559215555794174
:100310002154547841215554784020545579400C4B
:100320001E5272123955555559395454545939552C
:100330005454580000457C410002457D420001456F
:100340007C40F0292429F0F0282528F07C545545DC
:10035000002054547C547C0A097F4932494949326F
:100360003248484832324A4848303A4141217A3A84
:1003700042402078009DA0A07D39444444393D404E
:1003800040403D3C24FF2424487E4943662B2FFCFB
:100390002F2BFF0929F620C0887E090320545479A9
:1003A000410000447D413048484A32384040227A7A
:1003B000007A0A0A727D0D19317D2629292F2826F7
:1003C0002929292630484D402038080808080808FF
:1003D0000808382F10C8ACBA2F102834FA00007B58
:1003E000000008142A142222142A1408AA00550016
:1003F000AAAA55AA55AA000000FF00101010FF007D
:10040000141414FF001010FF00FF1010F010F0146F
:100410001414FC001414F700FF0000FF00FF141474
:10042000F404FC141417101F10101F101F141414C0
:100430001F00101010F0000000001F101010101FFF
:1004400010101010F010000000FF1010101010100D
:10045000101010FF10000000FF140000FF00FF004C
:10046000001F10170000FC04F414141710171414C4
:10047000F404F40000FF00F714141414141414F717
:1004800000F7141414171410101F101F141414F470
:10049000141010F010F000001F101F0000001F14B7
:1004A000000000FC140000F010F01010FF10FF140A
:1004B0001414FF141010101F00000000F010FFFFB4
:1004C000FFFFFFF0F0F0F0F0FFFFFF000000000082
:1004D000FFFF0F0F0F0F0F38444438447C2A2A3E89
:1004E000147E02020606027E027E026355494163C3
:1004F0003844443C04407E201E2006027E020299BD
:10050000A5E7A5991C2A492A1C4C7201724C304A55
:100510004D4D303048784830BC625A463D3E4949DE
:1005200049007E0101017E2A2A2A2A2A44445F4486
:100530004440514A444040444A51400000FF0103B6
:10054000E080FF000008086B6B0836123624360680
:100550000F090F06000018180000001010003040AE
:10056000FF0101001F01011E00191D1712003C3C74
:100570003C3C0000000000000000070002010000F9
:10058000030406000000000000000001020408103F
:1005900020408001020408102001020408102004F9
:1005A000040404040404040202020202020303031A
:1005B00003030300000000230026002900000000C0
:1005C00000250028002B0000000000240027002A3E
:1005D00000003404790A7A1811241FBECFEFD8E046
:1005E000DEBFCDBF11E0A0E0B1E0E4E6F2E302C07F
:1005F00005900D92A63DB107D9F713E0A6EDB1E045
:1006000001C01D92A83BB107E1F715E0C8EDD5E0A8
:1006100004C02297FE010E941D19C23DD107C9F7EF
:100620000E94D1180C9430190C94000061E0809164
:1006300000010E948E1461E083E00E948E1461E04C
:1006400084E00E948E1461E086E00E948E1460E0D7
:1006500087E00E948E1460E08EE00E948E1460E0BD
:100660008FE00E948E146091030170E08091000180
:100670000C9406148FE00E94FD14892B29F48091BC
:10068000DA01882309F462C08FE00E94FD14892BEF
:1006900029F08091D901882309F464C087E00E9481
:1006A000FD14892BF1F48091DE0181111AC081E0E3
:1006B0008093DE011092DD018093D80180910301C7
:1006C000823E08F45BC08FEF8093030160910301C9
:1006D00070E0809100010E94061460E083E00E94B7
:1006E000C71487E00E94FD14892B29F08091DD0159
:1006F000882309F445C08EE00E94FD14892BE1F4A3
:100700008091DC01811118C081E08093DC0110929E
:10071000DB018093D701809103018E31E8F51092BF
:1007200003016091030170E0809100010E940614B2
:1007300060E084E00E94C7148EE00E94FD14892BC3
:10074000D1F18091DB01882359F1089581E08093F4
:10075000DA011092D9018093D60160E086E00E9410
:10076000C71492CF81E08093D9011092DA011092E0
:10077000D60161E086E00E94C71490CF825EA4CFCC
:1007800081E08093DD011092DE011092D80161E0DA
:1007900083E00E94C714AFCF8E5180930301C1CF75
:1007A00081E08093DB011092DC011092D70161E0BF
:1007B00084E00C94C714089580912402909125023E
:1007C000A0912602B09127020196A11DB11D809330
:1007D000240290932502A0932602B09327020C9442
:1007E0003A039091090190930801809309010895BB
:1007F0004091E5015091E601809106019091070139
:100800004817590798F48091020198E0899F400D9C
:10081000511D11245093E6014093E5016091E301DD
:100820007091E4018FED91E00C943A1308958A30B1
:10083000910598F4FC01EC5CFF4F0C941B1980EEC1
:1008400007C080EE08C08FE10AC08FE10BC08FEFB8
:1008500097E008958FEF9FEF0895089580E090E06E
:10086000089580E098EF089528E049E06AE08FED70
:1008700091E00C94F10B40E251EA67E070E08EE009
:1008800093E00E94F9176AE071E08EE093E00E9425
:100890004F168FED91E00E94770C0E941603609135
:1008A00001018FED91E00E941710609102018FED20
:1008B00091E00E94401342E350E062E370E08FED6C
:1008C00091E00E943A1365E271E08FED91E00E94A1
:1008D000321648EC50E06AEF70E08FED91E00E9434
:1008E0003A1360E871E08FED91E00E94321668EEF5
:1008F00073E080E090E00E94931560911702709180
:1009000018028FED91E00E94D30B40E050E060E0D0
:1009100070E08FED91E00E943A1340E45DE063E007
:1009200070E08FEF92E00E94DB132FEF3FEFA90101
:100930006CED73E08FEF92E00C94EB134F925F92AB
:100940006F927F928F929F92AF92BF92CF92DF92DF
:10095000EF92FF920F931F93CF93C82F80910901BD
:100960008230C9F118F4813051F042C4CC2ED12C20
:10097000833009F457C0843009F4FBC039C4CB314B
:1009800019F482E090E031C4CD3089F44091E50162
:100990005091E6011092E4011092E30160E070E0F2
:1009A0008FED91E00E943A1380E090E027C4CA30B6
:1009B00019F40E94F803F8CFC63009F019C4E09189
:1009C0000E03F0910F030190F081E02D66E08EE0C0
:1009D00093E00995E9CFCD34A9F058F4C43409F473
:1009E0008CC0C53409F004C41092E4011092E301F4
:1009F00084C0CB3521F0C33609F44DC3F9C383E07D
:100A000090E0F3C34091E5015091E6014115510595
:100A100009F4E9C38091020128E0829F401951093D
:100A2000112462C030E3C31AD1088AE0C816D10489
:100A300048F484E090E00E94F103EE24D7FCE094B7
:100A4000FE2CB2C0C33409F45BC060F4C134E9F1D8
:100A500008F053C0CD3309F0C6C384E090E00E9493
:100A6000F1035FC3C83409F41CC378F4C43409F03B
:100A7000BAC3809102016091E3017091E40196E0B4
:100A8000899F6019710911244EC0C33709F454C0FD
:100A9000C53709F0A8C3C0903C02D0903D02E09059
:100AA0003E02F0903F02D092E601C092E5016091D3
:100AB00038027091390280913A0290913B02709312
:100AC000E4016093E301A601FCC14091E50150916E
:100AD000E6014115510509F486C38091020198E0B1
:100AE000899F4019510911245093E6014093E50173
:100AF0006091E3017091E401E4C10E94F80373C3C3
:100B0000209102016091E3017091E4018091040160
:100B10009091050136E0239F600D711D1124861709
:100B2000970708F4BC0170931E0260931D02409168
:100B3000E5015091E601C1C18091E5019091E60186
:100B4000A0E0B0E080933C0290933D02A0933E026F
:100B5000B0933F028091E3019091E401A0E0B0E006
:100B60008093380290933902A0933A02B0933B02EB
:100B70003AC320E3C21AD1083AE0C316D104E8F41C
:100B8000EE24D7FCE094FE2C20911F02309120022D
:100B90004091210250912202AAE0B0E00E94DE18AA
:100BA000C60ED71EE81EF91EC0921F02D092200268
:100BB000E0922102F0922202F7CEC83409F4E4C098
:100BC00008F043C0C33409F486C198F5CB3309F467
:100BD000D2C040F5CC3209F006C380911F0290913B
:100BE0002002A0912102B091220290931C028093D6
:100BF0001B0240911D0250911E0260E070E0409384
:100C00003002509331026093320270933302AA276C
:100C1000BB278093340290933502A0933602B093A1
:100C200037027FC2C13409F4EBC0C23409F412C1E7
:100C3000DAC2C53409F40EC108F474C1C63409F42B
:100C4000DFC0C73409F499C1CEC2CD3609F4C9C199
:100C500008F07AC0C83509F46DC220F4CA3409F42A
:100C60000DC2C1C2C63609F48FC0C93609F0BBC275
:100C7000C0901F02D0902002E0902102F09022024A
:100C8000D0921C02C0921B02E0911D02F0911E0244
:100C9000CF01A0E0B0E08093280290932902A093B6
:100CA0002A02B0932B02B701A6016627772740934B
:100CB0002C0250932D0260932E0270932F0280908D
:100CC000300290903102A0903202B09033024090F6
:100CD00034025090350260903602709037029A01CB
:100CE000AB012419350946095709BC01CD01681922
:100CF00079098A099B090E94E9186093130270938D
:100D00001402809315029093160286010150110976
:100D10009F0121503109A201B4018FED91E00E94A1
:100D2000770E8FED91E00E9447108FED91E00E94C9
:100D30005D1085E090E00E94F10364E471E08EE0D4
:100D400093E00E944F1630CEC13709F4AFC120F4B2
:100D5000CE3609F4B4C147C2C23709F439C1C3372A
:100D600009F041C260911F02609302018FED91E092
:100D70000E94401338C280911F02909120029093EC
:100D80001E0280931D02CDC140911F02509120028E
:100D90006091210270912202411551056105710592
:100DA00029F0415051096109710903C040E050E048
:100DB000BA0140931F025093200260932102709366
:100DC00022028091060190910701A0E0B0E0841713
:100DD0009507A607B70710F4AC01BD0150931C029C
:100DE00040931B025093E6014093E50180911D0260
:100DF00090911E029093E4018093E301BC0161C0D5
:100E0000C0901F02D0902002E0902102F0902202B8
:100E1000C114D104E104F10421F4C12CD12C7601D8
:100E2000C394C0921F02D0922002E0922102F0925D
:100E300022024091E5015091E6014C195D09509361
:100E40001C0240931B025093E6014093E501C1341C
:100E500091F53CC0C0901F02D0902002E09021028A
:100E6000F0902202C114D104E104F10421F4C12C58
:100E7000D12C7601C394C0921F02D0922002E0923E
:100E80002102F09222024091E5015091E6014C0DC1
:100E90005D1D80910601909107018417950708F464
:100EA000AC0150931C0240931B025093E601409307
:100EB000E501C23459F060E070E07093E4016093A2
:100EC000E3018FED91E00E943A138DC160911D0204
:100ED00070911E02F2CF80911F0290912002A0918A
:100EE0002102B09122020097A105B10521F481E011
:100EF00090E0A0E0B0E080931F0290932002A093C6
:100F00002102B09322026091E3017091E401680F25
:100F1000791F80910401909105018617970700F5CC
:100F2000BC011EC080911F0290912002A09121025D
:100F3000B09122020097A105B10521F481E090E073
:100F4000A0E0B0E080931F0290932002A0932102C2
:100F5000B09322026091E3017091E401681B790B68
:100F600070931E0260931D0240911B0250911C025F
:100F70005093E6014093E501A0CF80911F0290912C
:100F80002002A0912102B09122020097A105B10593
:100F900021F00197A109B10903C080E090E0DC01D4
:100FA00080931F0290932002A0932102B09322020B
:100FB000C0900401D0900501E12CF12CBC01CD01C1
:100FC000C616D706E806F90658F6C701B601C8CF17
:100FD00060911F02609301018FED91E00E94171054
:100FE00002C160911F0270912002809121029091B4
:100FF00022026B017C012EE1C21AD108E108F1083E
:101000003AE0C316D104E104F10498F42EE130E093
:1010100040E050E00E94F918CB010E941704909321
:101020001A02809319024091170250911802BC01D4
:1010300020C06B017C0128E2C21AD108E108F10846
:101040003AE0C316D104E104F10408F0CCC028E270
:1010500030E040E050E00E94F918CB010E941704F4
:1010600090931802809317026091190270911A02EE
:10107000AC018FED91E00E944613B5C080911F0234
:1010800090912002A0912102B09122020297A10525
:10109000B10509F0A8C060E070E08FED91E00E941A
:1010A000D30B40E050E060E070E00BCF60911F0296
:1010B00070912002809100010E94061494C08091DA
:1010C0001F0290912002A0912102B0912202069766
:1010D000A105B10509F087C068E371E08EE093E0F7
:1010E0000E9432166091E3017091E4016F5F7F4FBF
:1010F0004AE050E08EE093E00E94C7166DE371E095
:101100008EE093E00E9432166091E5017091E60155
:101110006F5F7F4F4AE050E08EE093E00E94CD1673
:1011200062C010921F0210922002109221021092AF
:1011300022023ACC20911D0230911E0280910401BE
:10114000909105012817390708F4C90190931E02F0
:1011500080931D02809106019091070140911F022A
:10116000509120026091210270912202A0E0B0E033
:10117000481759076A077B0710F4DB01CA019093EF
:101180001C0280931B026BE571E08EE093E00E94ED
:10119000321660911D0270911E024AE050E08EE00E
:1011A00093E00E94C7166EE671E08EE093E00E9425
:1011B000321660911B0270911C024AE050E08EE0F2
:1011C00093E00E94CD162091190230911A024091AD
:1011D0001B0250911C0260911D0270911E028FED46
:1011E00091E00E94C60E81E090E00E94F103DCCB0A
:1011F00081E090E00E94F1038C2F90E0CF911F914D
:101200000F91FF90EF90DF90CF90BF90AF909F90A5
:101210008F907F906F905F904F900895809109011B
:10122000853009F083C08EE093E00E94E3160297B8
:10123000B4F18EE093E00E94101780930D028EE0CF
:1012400093E00E94101780930E02682F8FED91E0BB
:101250000E94190C60910D028FED91E00E94190C13
:1012600081E080930C0280910F0290911002A09176
:101270001102B09112020196A11DB11D80930F02BF
:1012800090931002A0931102B093120210922402C4
:101290001092250210922602109227020895809142
:1012A0000C02813009F05BC040910F025091100296
:1012B00060911102709112028091130290911402B8
:1012C000A0911502B0911602481759076A077B07CB
:1012D00061F08091240290912502A0912602B091A4
:1012E00027020B97A105B105D0F110920C021092C4
:1012F0000F021092100210921102109212022AE0B4
:1013000030E040E050E0BA018EE093E00E94BA166F
:101310008FED91E00E94521081E090E00E94F10375
:1013200060E771E08EE093E00C9432168EE093E07B
:101330000E94E316892B99F08EE093E00E9410172B
:1013400080932302882359F00E949E0418161906E0
:1013500034F4609123028FED91E00C9434160895DB
:1013600061E08AE00E94C71461E08AE00E948E1466
:101370008CB580618CBD8CB580648CBD61E08DE0E6
:101380000E948E1461E08BE00C948E14811103C0D6
:101390008CB5806202C08CB58F7D8CBD08959CB5E4
:1013A000937F982B9CBD08952CB5982F93702C7F1C
:1013B000922B9CBD9DB582FB882780F99E7F982B40
:1013C0009DBD089580916F0290E020917002821B74
:1013D000910908952091700280916F02281750F4AE
:1013E000E22FF0E0EF58FD4F808190E02F5F2093D7
:1013F000700208958FEF9FEF0895E0917002809141
:101400006F02E81730F4F0E0EF58FD4F808190E074
:1014100008958FEF9FEF08950895CF92DF92EF9296
:10142000FF920F931F93CF93DF937C01CB018A012F
:1014300020914C02222389F0EB016B01C40ED51ED2
:10144000CC15DD0569F06991D701ED91FC91019012
:10145000F081E02DC7010995F3CF642F0E947D0A2A
:10146000C801DF91CF911F910F91FF90EF90DF9016
:10147000CF900895CF93DF931F92CDB7DEB76983E6
:1014800020914C022223D1F020914D02203240F0D5
:1014900021E030E0FC013383228380E090E015C03E
:1014A00080914E02E82FF0E0E15BFD4F998190833F
:1014B0008F5F80934E0280934D0205C061E0CE01A4
:1014C00001960E947D0A81E090E00F90DF91CF911C
:1014D0000895FC011382128248EE53E060E070E050
:1014E000448355836683778389E891E09183808381
:1014F000089580E492E00C94690A613298F4209196
:10150000FE02243089F46093B302FC0185EB92E083
:10151000DC012A2F281B261718F421912D93F9CFCF
:1015200080E0089581E0089582E0089585ED80933C
:10153000BC008091BC0084FDFCCF1092FE02089597
:1015400085EC8093BC001092FE0208951F920F92CA
:101550000FB60F9211242F933F934F935F936F9386
:101560007F938F939F93AF93BF93EF93FF9380915C
:10157000B900887F803609F49CC068F5883209F488
:101580005BC090F4803109F454C038F4882309F426
:10159000F5C0883009F44DC0F5C0883109F44CC05D
:1015A000803209F45DC0EEC0803409F468C048F4AC
:1015B000803309F455C0883309F0E4C08093910268
:1015C000A8C0803509F44FC0883509F45DC088345F
:1015D00009F0D8C0D5C0883909F4C6C0A8F4883746
:1015E00009F467C038F4883609F463C0803709F419
:1015F00060C0C8C0883809F4B7C0803909F45FC03A
:10160000803809F0BFC05BC0803B09F485C038F466
:10161000803A09F466C0883A09F47EC0B3C0803CC1
:1016200009F4A6C0883C09F4A3C0883B09F489C02A
:10163000A9C08091FD0210C09091D6028091D50280
:10164000981770F5E091D60281E08E0F8093D60254
:10165000F0E0E952FD4F80818093BB0085EC85C0AE
:10166000809391028DC0E091D60281E08E0F80932D
:10167000D6028091BB00F0E0E952FD4F808390914B
:10168000D6028091D5026DC0E091D60281E08E0F26
:101690008093D6028091BB00F0E0E952FD4F808339
:1016A0008091FC0281116CC081E08093FB0284EA8E
:1016B00060C083E08093FE0210929202CFCF8091AF
:1016C0009202803208F050C0E091920281E08E0FC9
:1016D000809392028091BB00F0E0ED56FD4F808335
:1016E000BDCF80919202803230F4E0919202F0E01E
:1016F000ED56FD4F10820E94960A6091920270E0B2
:10170000E091F702F091F80283E992E009951092D6
:1017100092020E94A00A36C084E08093FE021092DA
:10172000B4021092B302E091F902F091FA02099525
:101730008091B302811105C081E08093B3021092C1
:10174000B502E091B40281E08E0F8093B402F0E024
:10175000EB54FD4F80818093BB009091B402809147
:10176000B302981708F47ACF85E88093BC000AC0CA
:1017700085EC8093BC001092FE0204C0109291028E
:101780000E94960AFF91EF91BF91AF919F918F9127
:101790007F916F915F914F913F912F910F900FBE6D
:1017A0000F901F901895EF92FF920F931F93DC01FB
:1017B000ED91FC9111971E960D911C911F971C960F
:1017C0002D913C911D970684F785E02D7B0140E02B
:1017D00050E060E070E009951F910F91FF90EF904D
:1017E0000895EF92FF920F931F93CF93DF931F9271
:1017F000CDB7DEB77C01062F142F40E451E060EF37
:1018000070E029830E94F01189E991E0F70191834A
:10181000808303A314A3298125A381E0808F10A6D0
:1018200016A20F90DF91CF911F910F91FF90EF9033
:1018300008956EBD000000000000000000000000E0
:101840000000000000000000000000000000000098
:101850000895CF93DF93EC01ED8DFE8D90818CA5E3
:10186000809589238083EB8DFC8D90818AA580955E
:1018700089238083E9A1FAA190818BA58095892392
:101880008083CE010E94190CE9A1FAA180819BA559
:10189000892B8083DF91CF910895662311F061E257
:1018A00001C060E20C94290CCF93DF93EC01ED8D25
:1018B000FE8D80819CA5892B8083EB8DFC8D908192
:1018C0008AA5809589238083E9A1FAA190818BA5BF
:1018D000809589238083CE010E94190CE9A1FAA189
:1018E00080819BA5892B8083DF91CF910895CF9331
:1018F000DF93EC0161E08DA10E948E1460E08DA168
:101900000E94C71461E08CA10E948E1461E08BA13B
:101910000E948E144BA150E0FA01E156FA4FE49177
:10192000F0E0EE0FFF1FE354FA4F859194919AA3D4
:1019300089A32CA130E0F901E156FA4F849190E09F
:10194000880F991F83549A4FFC01859194919E8F23
:101950008D8FFA01E557FA4F44914BA7F901E557EE
:10196000FA4F24912CA7888D882379F00E94B00922
:1019700084E00E94D40981E00E94C60981E00E94AF
:10198000C60980E00E94CF0940C061E088A50E949E
:101990008E1461E08EA10E948E1460E08FA10E94DF
:1019A0008E1448A550E0FA01E156FA4FE491F0E0B8
:1019B000EE0FFF1FE354FA4FA591B491BC8FAB8F8C
:1019C0002EA130E0F901E156FA4F849190E0880FA2
:1019D000991F83549A4FFC01859194919A8F898F16
:1019E000FA01E557FA4F44914AA7F901E557FA4F32
:1019F000249129A78C91409584238C93E98DFA8DAD
:101A0000908189A580958923808361E08DA10E94C2
:101A1000C71465E070E080E090E00E94931560E0FC
:101A20008DA10E94C71464E170E080E090E00E9404
:101A3000931561E08DA10E94C71466E970E080E013
:101A400090E00E9493156BECCE010E94290C69E393
:101A5000CE010E94540C6CE2CE010E94540C60E056
:101A6000CE010E94540C64E3CE010E94540C62E04B
:101A7000CE010E94540C6FECCE010E94290C60E054
:101A8000CE010E94540C61ECCE010E94540C60E324
:101A9000CE010E94540C68EECE010E94290C65E82C
:101AA000CE010E94540C60E0CE010E94540C68E705
:101AB000CE010E94540C6AEECE010E94290C60E017
:101AC000CE010E94540C60E0CE010E94540C6DEED9
:101AD000CE010E94290C64E6CE010E94540C63E002
:101AE000CE010E94540C62E1CE010E94540C61E8C8
:101AF000CE010E94540C67EFCE010E94290C60E2D7
:101B0000CE010E94540C60ECCE010E94290C63E2CD
:101B1000CE010E94540C61ECCE010E94290C60E1C0
:101B2000CE010E94540C65ECCE010E94290C6EE39C
:101B3000CE010E94540C68E2CE010E94540C67EC66
:101B4000CE010E94290C66E8CE010E94540C66E387
:101B5000CE010E94290C68ECCE010E94540C6AE36D
:101B6000CE010E94290C65E5CE010E94540C61EB68
:101B7000CE010E94290C60E0CE010E94540C68E165
:101B8000CE010E94540C66EBCE010E94290C68E045
:101B9000CE010E94540C62E8CE010E94540C67E210
:101BA000CE010E94540C62EFCE010E94290C60E02D
:101BB000CE010E94540C66E2CE010E94290C61E025
:101BC000CE010E94540C60EECE010E94290C6FE001
:101BD000CE010E94540C61E3CE010E94540C6BE2D2
:101BE000CE010E94540C6CE0CE010E94540C6EE0B9
:101BF000CE010E94540C68E0CE010E94540C6EE4A9
:101C0000CE010E94540C61EFCE010E94540C67E398
:101C1000CE010E94540C67E0CE010E94540C60E19A
:101C2000CE010E94540C63E0CE010E94540C6EE081
:101C3000CE010E94540C69E0CE010E94540C60E079
:101C4000CE010E94540C61EECE010E94290C60E08E
:101C5000CE010E94540C6EE0CE010E94540C64E14F
:101C6000CE010E94540C63E0CE010E94540C61E14D
:101C7000CE010E94540C67E0CE010E94540C61E337
:101C8000CE010E94540C61ECCE010E94540C68E419
:101C9000CE010E94540C68E0CE010E94540C6FE00B
:101CA000CE010E94540C6CE0CE010E94540C61E302
:101CB000CE010E94540C66E3CE010E94540C6FE0EA
:101CC000CE010E94540C61E1CE010E94290C68E70C
:101CD00070E080E090E00E94931569E2CE010E94DE
:101CE000290C6CE2CE01DF91CF910C94290CCF929C
:101CF000DF92FF920F931F93CF93DF9300D000D01A
:101D00001F92CDB7DEB76C01F62E6AE22B833A83C1
:101D10004D835C8379830E94290C7981672FC601EA
:101D20000E94540C6F2DC6010E94540C3A81632FFF
:101D3000C6010E94540C2B81622FC6010E94540CD4
:101D40006BE2C6010E94290C5C81652FC6010E94CE
:101D5000540C4D81642FC6010E94540C612FC601A2
:101D60000E94540C602FC6010E94540C6CE2C60104
:101D70000F900F900F900F900F90DF91CF911F91C8
:101D80000F91FF90DF90CF900C94290CEF92FF926F
:101D90000F931F93CF93DF93EC01F22EE32E77FD89
:101DA0002DC08C859D856817790744F557FD26C0A1
:101DB0008E859F85481759070CF58A010F5F1F4FC5
:101DC0009B012F5F3F4FCE010E94770EED8DFE8D60
:101DD00080819CA5892B8083E9A1FAA190818BA5A4
:101DE0008095892380836E2DCE010E94190CFEBC44
:101DF000E9A1FAA180819BA5892B8083DF91CF91F6
:101E00001F910F91FF90EF900895CF92DF92EF9284
:101E1000FF920F931F93CF93DF93EC017901D02EA4
:101E2000C12E8C859D8568177907CCF58E859F8599
:101E300048175907A4F59A012E0D3F1D82179307E5
:101E40001CF47C01E41AF50A8A010E0D1F1D0150D5
:101E500011099B01CE010E94770EED8DFE8D8081D0
:101E60009CA5892B8083E9A1FAA190818BA58095FF
:101E700089238083E114F10461F06C2DCE010E946E
:101E8000190C6D2DCE010E94190C81E0E81AF108A1
:101E9000F1CFE9A1FAA180819BA5892B8083DF91F5
:101EA000CF911F910F91FF90EF90DF90CF90089509
:101EB000CF92DF92EF92FF920F931F93CF93DF9316
:101EC000EC017901D02EC12E8C859D85681779078C
:101ED000CCF52E853F8542175307A4F59B012E0DA7
:101EE0003F1D821793071CF47C01E61AF70A9B0139
:101EF0002E0D3F1D215031098A01CE010E94770E1F
:101F0000ED8DFE8D80819CA5892B8083E9A1FAA1AE
:101F100090818BA5809589238083E114F10461F081
:101F20006C2DCE010E94190C6D2DCE010E94190C52
:101F300081E0E81AF108F1CFE9A1FAA180819BA51F
:101F4000892B8083DF91CF911F910F91FF90EF90AC
:101F5000DF90CF900895AF92BF92CF92DF92EF9231
:101F6000FF920F931F93CF93DF93EC016901580108
:101F70002C853D85621773070CF04EC08E859F85BA
:101F8000481759070CF048C0FB01EC0DFD1D2E173A
:101F90003F071CF46901C61AD70A9A012A0D3B1D96
:101FA000821793071CF45C01A41AB50A8A010A0D72
:101FB0001B1D015011099B012C0D3D1D21503109A4
:101FC000CE010E94770EED8DFE8D80819CA5892B20
:101FD0008083E9A1FAA190818BA5809589238083D4
:101FE0001A141B049CF48601101611065CF46F2D64
:101FF000CE010E94190C6E2DCE010E94190C0150C9
:102000001109F2CF81E0A81AB108EACFE9A1FAA13B
:1020100080819BA5892B8083DF91CF911F910F91A8
:10202000FF90EF90DF90CF90BF90AF9008951F93F7
:10203000CF93DF93EC01162F66E30E94290C612FEA
:1020400063706D8B623041F0633089F0613011F064
:1020500068E403C068E20CC068E8CE010E94540C3A
:1020600080EF90E09D878C8780E491E00AC068EE65
:10207000CE010E94540C80E491E09D878C8780EF14
:1020800090E09F878E87DF91CF911F910895DC01AB
:102090005D96ED91FC915E9720819C968C91282B0A
:1020A00020830895DC019196ED91FC919297208117
:1020B0009B968C91282B20830895DC019196ED91BD
:1020C000FC91929720819B968C91809582238083AE
:1020D00008952F923F924F925F926F927F928F92CC
:1020E0009F92AF92BF92CF92DF92EF92FF920F93A7
:1020F0001F93CF93DF9300D000D0CDB7DEB74C0154
:102100007C836B836A015901C8018701AC014C19BA
:102110005D0957FF03C051954195510995016B81A8
:102120007C81261B370B37FF03C031952195310980
:1021300022242394312C2417350714F0212C312C20
:102140002114310459F03A2D2B2D5C01832F922F4D
:102150003B812C81DC82CB82C32ED22EAB81BC8111
:10216000AA16BB065CF43C2D2D2D6C01832F922FFB
:102170003B812C81BC82AB82A32EB22E2501EB8148
:10218000FC814E1A5F0A3C016C187D0877FE03C083
:10219000719461947108720157FE03C0FFEFEF1A4A
:1021A000FF0AF594E794C816D9062CF421E030E034
:1021B0003A83298324C06FEF7FEF7A8369831FC03E
:1021C000D401ED91FC910480F581E02D980121145A
:1021D0003104D9F04B815C81B601C4010995E61840
:1021E000F708F7FE06C0E981FA81CE0EDF1EE40C87
:1021F000F51C2B813C812F5F3F4F3C832B836B81F0
:102200007C81A616B706E4F604C0A6016B817C812A
:10221000E4CF0F900F900F900F90DF91CF911F910F
:102220000F91FF90EF90DF90CF90BF90AF909F9075
:102230008F907F906F905F904F903F902F90089578
:102240006F927F928F929F92AF92BF92CF92DF92C6
:10225000EF92FF920F931F93CF93DF93EC015B01FB
:102260006A0139014801E881F9810284F385E02D92
:1022700087010995E881F981A601480D591D415052
:1022800051090284F385E02D9301B501CE01099532
:10229000E881F9810084F185E02D9401A601B50162
:1022A000CE010995E881F981B501660D771D615070
:1022B00071090084F185E02D9401A601CE010995F4
:1022C000DF91CF911F910F91FF90EF90DF90CF9012
:1022D000BF90AF909F908F907F906F900895EF92F6
:1022E000FF920F931F93DC01ED91FC91240F351F9A
:1022F000215031090680F781E02D780189019B0189
:1023000009951F910F91FF90EF900895EF92FF9222
:102310000F931F93DC01ED91FC91260F371F215085
:1023200031090680F781E02D78018A0109951F9116
:102330000F91FF90EF9008956F927F928F929F92EE
:10234000AF92BF92CF92DF92EF92FF920F931F93C3
:10235000CF93DF935C014A0169013801EB01C60E9E
:10236000D71ECC15DD0574F4D501ED91FC910084E8
:10237000F185E02D87019301A401BE01C5010995F6
:102380002196EFCFDF91CF911F910F91FF90EF90AA
:10239000DF90CF90BF90AF909F908F907F906F9085
:1023A0000895EF92FF920F931F93DC01ED91FC9142
:1023B00011971E960D911C911F971C962D913C9183
:1023C0001D970684F785E02D7B0140E050E060E03A
:1023D00070E009951F910F91FF90EF900895089577
:1023E000FC011382128281EB91E0918380837187DB
:1023F0006087538742877587648757874687158A22
:10240000158214821782168221E0248B8FEF9FEFB2
:10241000938B828B918B808B268B08952F923F928A
:102420004F925F926F927F928F929F92AF92BF92E4
:10243000CF92DF92EF92FF920F931F93CF93DF9390
:10244000CDB7DEB72C970FB6F894DEBF0FBECDBF69
:102450009C878B873A0118870F83FA86E986CD829D
:10246000DC011C968D919C911D97681779070CF0E3
:1024700094C01E968D919C911F97481759070CF098
:102480008CC08C2C912CCB01B6E0CB9E800D911D85
:102490001124181619060CF080C0C40113E0880F2F
:1024A000991F1A95E1F7840F951F181619060CF05D
:1024B00074C0F5E02F9F200111245B016B011C8289
:1024C000920124583F4F2901461A570A3C81353062
:1024D00031F0F201EA0DFB1D44914B8301C01B82D8
:1024E0007A82698213011E828B8180FF13C0AB85C3
:1024F000BC85ED91FC91BD81B13031F40480F58152
:10250000E02D2F81388519C00684F785E02DEF80F6
:10251000F8841EC0E985FA852F813885E217F30714
:10252000F9F0AB85BC85ED91FC91BD81B13059F4DA
:102530000480F581E02D29853A85A101B5018B85BF
:102540009C8509950DC00684F785E02DE984FA8401
:102550008401940149815A81B6018B859C85099536
:10256000EB81E695EB83FE81FF5FFE8329813A8153
:10257000280D391D3A8329833FEF231A330AF83097
:1025800009F0B2CF4C814F5F4C83C80CD91C8FEF40
:10259000A81AB80A463009F099CF2C960FB6F894CD
:1025A000DEBF0FBECDBFDF91CF911F910F91FF9086
:1025B000EF90DF90CF90BF90AF909F908F907F90E3
:1025C0006F905F904F903F902F900895CF92EF9231
:1025D000FF920F931F93CF93DF93EC01262F6A3066
:1025E00049F42C898E819F8138E0239F800D911DB5
:1025F000112432C06D30A1F1EA88FB88088919895D
:102600004E815F816C817D81CC880E940E122C8965
:10261000422F50E08C819D8136E0239F800D911DDB
:1026200011249D838C832E892223D1F06AEF6403C9
:102630009001659F300D11246C857D85260F371F15
:102640002817390768F403E0440F551F0A95E1F78E
:102650008E819F81840F951F9F838E831D821C8294
:1026600081E090E0DF91CF911F910F91FF90EF906B
:10267000CF900895FC017583648357834683089542
:10268000611101C061E0FC01648B0895FC01718B54
:10269000608B538B428B08951F920F920FB60F924F
:1026A00011242F933F934F935F936F937F938F9357
:1026B0009F93AF93BF93EF93FF93E0910303F09148
:1026C00004030995FF91EF91BF91AF919F918F9175
:1026D0007F916F915F914F913F912F910F900FBE1E
:1026E0000F901F901895FC01A3E0440F551F661F23
:1026F000771FAA95D1F74115510581E0680771054B
:1027000014F481E00EC033E07595679557954795B1
:102710003A95D1F74115510581E0680771051CF420
:1027200082E0828331C023E0759567955795479580
:102730002A95D1F74115510581E06807710514F418
:1027400083E0EFCF92E075956795579547959A95F9
:10275000D1F74115510581E06807710514F484E053
:10276000E0CF82E075956795579547958A95D1F7A3
:1027700085E082834115510581E06807710524F0E9
:102780004FEF5FEF60E070E08FB78383F894518381
:102790004083509387004093860083818FBF809150
:1027A0008100887F80938100809181009281892BB4
:1027B0008093810008951092800020E12093810091
:1027C0000C947313E1E8F0E02081DC0112968C9107
:1027D000282B208308950F931F93CF93DF93EC0151
:1027E0008B01BA01A901141615061606170614F472
:1027F0000E9473131D830C8381E080936F00CE01D0
:10280000DF91CF911F910F910C94E2131F93CF93FF
:10281000DF93182FEB0161E00E948E14209711F4D2
:1028200060E004C0CF3FD10539F461E0812FDF9132
:10283000CF911F910C94C714E12FF0E0E958FA4FA3
:10284000E491E330F9F048F4E130B9F0E230A1F579
:1028500084B5806284BDC8BD34C0E630E9F0E7309D
:1028600019F1E43049F58091800080628093800006
:10287000D0938B00C0938A0024C084B5806884BD47
:10288000C7BD1FC080918000806880938000D09376
:102890008900C093880015C08091B0008068809343
:1028A000B000C093B3000DC08091B00080628093EF
:1028B000B000C093B40005C0C038D1050CF0B5CF4E
:1028C000AFCFDF91CF911F910895833081F028F42D
:1028D000813099F08230A1F008958630A9F08730D8
:1028E000B9F08430D1F4809180008F7D03C0809155
:1028F00080008F7780938000089584B58F7702C021
:1029000084B58F7D84BD08958091B0008F7703C01A
:102910008091B0008F7D8093B0000895CF93DF93B6
:1029200090E0FC01E557FA4F2491FC01E156FA4F83
:102930008491882349F190E0880F991FFC01E953A5
:10294000FA4FA591B49183549A4FFC01C591D4914B
:102950009FB7611108C0F8948C91209582238C93C5
:10296000888182230AC0623051F4F8948C91322F0E
:10297000309583238C938881822B888304C0F894BC
:102980008C91822B8C939FBFDF91CF9108950F93F1
:102990001F93CF93DF931F92CDB7DEB7282F30E080
:1029A000F901E958FA4F8491F901E557FA4F14916A
:1029B000F901E156FA4F04910023C9F0882321F070
:1029C00069830E9465146981E02FF0E0EE0FFF1F1C
:1029D000E354FA4FA591B4919FB7F8948C9161118B
:1029E00003C01095812301C0812B8C939FBF0F9052
:1029F000DF91CF911F910F910895CF93DF93282FEF
:102A000030E0F901E958FA4F8491F901E557FA4F9E
:102A1000D491F901E156FA4FC491CC2391F0811180
:102A20000E946514EC2FF0E0EE0FFF1FED54FA4FFB
:102A3000A591B4912C912D2381E090E021F480E0C8
:102A400002C080E090E0DF91CF9108951F920F9235
:102A50000FB60F9211242F933F938F939F93AF93B1
:102A6000BF938091060390910703A0910803B09152
:102A700009033091050323E0230F2D3720F401963D
:102A8000A11DB11D05C026E8230F0296A11DB11D91
:102A9000209305038093060390930703A0930803F4
:102AA000B093090380910A0390910B03A0910C034A
:102AB000B0910D030196A11DB11D80930A0390935F
:102AC0000B03A0930C03B0930D03BF91AF919F91A3
:102AD0008F913F912F910F900FBE0F901F901895DF
:102AE0003FB7F89480910A0390910B03A0910C03D7
:102AF000B0910D0326B5A89B05C02F3F19F0019694
:102B0000A11DB11D3FBF6627782F892F9A2F620F15
:102B1000711D811D911D42E0660F771F881F991F4F
:102B20004A95D1F70895CF92DF92EF92FF92CF931B
:102B3000DF936B017C010E947015EB01C114D1047D
:102B4000E104F10479F00E9470156C1B7D0B683E66
:102B50007340A0F381E0C81AD108E108F108C85118
:102B6000DC4FECCFDF91CF91FF90EF90DF90CF90D3
:102B70000895789484B5826084BD84B5816084BDF5
:102B800085B5826085BD85B5816085BDEEE6F0E0E6
:102B9000808181608083E1E8F0E010828081826042
:102BA0008083808181608083E0E8F0E080818160C3
:102BB0008083E1EBF0E0808184608083E0EBF0E0F3
:102BC000808181608083EAE7F0E080818460808397
:102BD0008081826080838081816080838081806841
:102BE00080831092C1000895CF92DF92EF92FF92FE
:102BF0000F931F93CF93DF936C017A01EB01E60EE5
:102C0000F71E00E010E0CE15DF0561F06991D601F6
:102C1000ED91FC910190F081E02DC6010995080F1E
:102C2000191FF1CFC801DF91CF911F910F91FF9034
:102C3000EF90DF90CF9008956115710581F0DB0171
:102C40000D900020E9F7AD0141505109461B570B8B
:102C5000DC01ED91FC910280F381E02D099480E08C
:102C600090E008950C941C16DC01ED91FC9101900C
:102C7000F081E02D09940F931F93CF93DF93EC0124
:102C80006DE00E9434168C016AE0CE010E94341679
:102C9000800F911FDF91CF911F910F9108950F9396
:102CA0001F93CF93DF93EC010E941C168C01CE0181
:102CB0000E943B16800F911FDF91CF911F910F91C2
:102CC00008958F929F92AF92BF92CF92DF92EF9230
:102CD000FF920F931F93CF93DF93CDB7DEB7A197EA
:102CE0000FB6F894DEBF0FBECDBF7C01C42EE52F1A
:102CF000CB01D22E19A221E02D1510F02AE0D22E00
:102D00008E010F5D1F4F8D2C912CA12CB12C6C2DA1
:102D10007E2FA50194010E94F9188C2DD29E801956
:102D20001124015011098A3014F4805D01C0895CBE
:102D3000F8018083211531054105510521F0C22E8E
:102D4000E32FCA01E4CFB801C7010E941C16A19667
:102D50000FB6F894DEBF0FBECDBFDF91CF911F91AC
:102D60000F91FF90EF90DF90CF90BF90AF909F902A
:102D70008F9008952115310541F4DC01ED91FC910E
:102D80000190F081E02D642F09940C9461169A0152
:102D9000AB0160E070E00C94BA160F931F93CF93D1
:102DA000DF93EC019A01AB0160E070E00E94BA167B
:102DB0008C01CE010E943B16800F911FDF91CF91B5
:102DC0001F910F910895FC0124853585F901E05C80
:102DD000FF4F80819181F901EE5BFF4F20813181AE
:102DE000821B930B8F7399270895FC018485958529
:102DF000FC01E05CFF4F40815181FC01EE5BFF4F25
:102E0000208131814217530741F00190F081E02D7C
:102E1000E80FF91F808190E008958FEF9FEF0895EC
:102E2000FC0184859585FC01E05CFF4F4081518168
:102E3000FC01EE5BFF4F208131814217530779F08F
:102E4000A081B181A80FB91F8C91208131812F5FA2
:102E50003F4F2F7333273183208390E008958FEF06
:102E60009FEF0895FC0181A1882329F0A489B589E9
:102E70008C9186FFFBCF11A20895CF93DF93FC01C5
:102E800026853785D901A05CBF4F8D919C91119704
:102E900001968F739927E901CE5BDF4F48815981F5
:102EA00084179507D9F30D90BC91A02DA20FB31FE5
:102EB0006C93A685B785A05CBF4F11969C938E93AB
:102EC000A689B7892C9181E090E0078C02C0880F19
:102ED000991F0A94E2F7282B2C9381E081A30488A0
:102EE000F589E02D80818064808381E090E0DF912E
:102EF000CF91089508951F920F920FB60F9211244B
:102F00002F933F934F938F939F93EF93FF938091D2
:102F1000C00082FD1CC04091C6008091B403909116
:102F2000B50301968F7399272091B6033091B703AB
:102F30008217930771F0E091B403F091B503EC5858
:102F4000FC4F40839093B5038093B40302C08091FB
:102F5000C600FF91EF919F918F914F913F912F91DB
:102F60000F900FBE0F901F9018958EE093E00E9477
:102F7000E316892B11F00C947A1708951F920F9283
:102F80000FB60F9211242F933F938F939F93EF933C
:102F9000FF9320917003309171038091720390919F
:102FA00073032817390731F48091C1008F7D809316
:102FB000C10014C0E0917203F0917303E05DFC4F17
:102FC0002081809172039091730301968F739927EA
:102FD00090937303809372032093C600FF91EF9147
:102FE0009F918F913F912F910F900FBE0F901F9047
:102FF0001895CF92DF92EF92FF92CF93DF93EC017F
:103000006A017B01411581EE580761057105F9F0F0
:10301000EC89FD8981E090E008A002C0880F991F2B
:103020000A94E2F7808360E079E08DE390E0A70105
:1030300096010E94F918215031094109510956950C
:10304000479537952795211580E1380798F0EC8949
:10305000FD89108260E874E88EE190E0A701960196
:103060000E94F91821503109410951095695479597
:1030700037952795E889F9893083EA89FB89208388
:1030800019A2EE89FF89408181E090E09C010C8CBF
:1030900002C0220F331F0A94E2F7422B4083EE89CD
:1030A000FF8940819C010D8C02C0220F331F0A94BE
:1030B000E2F7422B4083EE89FF8940819C010E8C10
:1030C00002C0220F331F0A94E2F7422B4083EE899D
:1030D000FF8920810F8C02C0880F991F0A94E2F7A4
:1030E000809582238083DF91CF91FF90EF90DF90D6
:1030F000CF900895109211031092100388EE93E080
:10310000A0E0B0E08093120390931303A093140304
:10311000B093150389EC91E090930F0380930E0315
:1031200084E793E090931B0380931A0380E393E07A
:1031300090931D0380931C0385EC90E090931F03F4
:1031400080931E0384EC90E09093210380932003EE
:1031500080EC90E0909323038093220381EC90E035
:10316000909325038093240382EC90E090932703AF
:103170008093260386EC90E09093290380932803A4
:1031800084E080932A0383E080932B0387E080937D
:103190002C0385E080932D0381E080932E03089516
:1031A00008950E94B9150E943B04C5EBD7E10E9427
:1031B0000E092097E1F30E94B517F9CF0E9421195B
:1031C000A59F900DB49F900DA49F800D911D11247B
:1031D0000895DB018F939F930E94DE18BF91AF91FA
:1031E000A29F800D911DA39F900DB29F900D112461
:1031F0000895A1E21A2EAA1BBB1BFD010DC0AA1F38
:10320000BB1FEE1FFF1FA217B307E407F50720F04F
:10321000A21BB30BE40BF50B661F771F881F991FCA
:103220001A9469F760957095809590959B01AC0113
:10323000BD01CF010895EE0FFF1F0590F491E02D21
:103240000994A29FB001B39FC001A39F700D811D7F
:103250001124911DB29F700D811D1124911D08959F
:04326000F894FFCF10
:10326400050102FF3F01EF00010157656C636F6DBB
:103274006520746F20746865204F44524F49442D73
:1032840053484F570048656C6C6F204F44524F4968
:10329400442D53484F572100726F773D002C206313
:1032A4006F6C3D00636174207468652072617720DF
:1032B4006461746120696D61676500506C6F74743A
:1032C400696E6720726F772F636F6C3A20002F004E
:1032D4004E4F545350454349414C2053617274003E
:1032E40076312E3600000000003A0A0D0AE209EA9F
:1032F40009FD090C0A00000000E612F415C60E6967
:1033040010050F580F2011AB0FD30B4D0C0000000C
:1033140000E612F415D01869106F11861120119C63
:1033240011D111EF11000000003D17F415E3161040
:0633340017F51632170028
:00000001FF
